:0600000002308A005A2ABA
:10000800F30003088301E2000A08E3008A01830180
:10001800CA018C1E532A8C121A08CA00703A031D92
:100028002128003028021F3003192702031C512AF7
:10003800F130A707031CA803512A4A083B3A031DBD
:100048003128053028029930031927020318512A4C
:100058000F30A7070318A80A512A4A08793A031D3E
:10006800412800305B021F3003195A02031C512A31
:10007800F130DA07031CDB03512A4A08683A031DEA
:10008800512805305B02993003195A020318512A86
:100098000F30DA070318DB0A512A4A08743A031D9D
:1000A800612800302A021F3003192902031C512A33
:1000B800F130A907031CAA03512A4A08673A031D0D
:1000C800712805302A029930031929020318512A88
:1000D8000F30A9070318AA0A512A4A08723A031DC1
:1000E8008128053059029930031958020318512AFA
:1000F8000F30D8070318D90A512A4A08663A031D4F
:100108009128003059021F3003195802031C512A44
:10011800F130D807031CD903512A4A087A3A031D3B
:10012800AC283F30D0000130D1006230D20003301B
:10013800D3003430D4000430D500F930D600033071
:10014800D7005430D800D901A901AA012C30F529CB
:100158004A08653A031DBC2805305702993003192F
:1001680056020318512A0F30D6070318D70A512A06
:100178004A08643A031DCC28003057021F3003197F
:100188005602031C512AF130D607031CD703512A03
:100198004A08773A031DDC28003055021F3003193E
:1001A8005402031C512AF130D407031CD503512AE9
:1001B8004A08733A031DEC28053055029930031993
:1001C80054020318512A0F30D4070318D50A512AAC
:1001D8004A08713A031DFC28053053029930031967
:1001E80052020318512AF130D207031CD303512AB3
:1001F8004A08613A031D0C29003053021F300319C5
:100208005202031C512A0F30D2070318D30A512A6D
:100218004A08693A031D1C2905305F029930031901
:100228005E020318512A0F30DE070318DF0A512A2D
:100238004A086B3A031D2C2900305F021F3003194E
:100248005E02031C512AF130DE07031CDF03512A2A
:100258004A086F3A031D3C2900302C021F3003194D
:100268002B02031C512AF130AB07031CAC03512AA3
:100278004A086C3A031D4C2905302C0299300319A1
:100288002B020318512A0F30AB070318AC0A512A66
:100298004A08753A031D5C2905305D029930031937
:1002A8005C020318512A0F30DC070318DD0A512AB3
:1002B8004A086A3A031D6C2900305D021F30031991
:1002C8005C02031C512AF130DC07031CDD03512AB0
:1002D8004A08783A031D8C290E30D0000330D1002B
:1002E8002A30D200D3015D30D4000230D5008330EB
:1002F800D6000130D7005430D800D901A901AA018D
:10030800CE30DA000130DB007E30DC00DD01CF29A1
:100318004A08633A031DAD293F30D0000130D100AF
:100328005430D200D3013430D4000430D5008B309F
:10033800D6000130D7008330D8000330D900A90196
:10034800AA01BE30DA000330DB00B130DC00023035
:10035800CE294A08763A031DDB29D001D101623043
:10036800D2000330D3003430D4000430D500F93043
:10037800D6000330D7009430D8000330D900593064
:10038800A9000130AA00BE30DA000330DB00663075
:10039800DC000430DD00DB30DE000230DF00C63078
:1003A800AB000130AC00DB30A7000230232A4A083A
:1003B800623A031DF829B630D0000330D10062300C
:1003C800D2000330D3001530D4000130D5008B3073
:1003D800D6000130D7005430D800D901A901AA01AC
:1003E800CE30DA000130412A4A086E3A031D252A28
:1003F8003F30D0000130D1004C30D200D3012B3037
:10040800D4000430D5006630D6000430D700A230BE
:10041800D8000330D900A901AA01EB30DA00DB01CA
:10042800B130DC000230DD00DB30DE000230DF00FE
:100438002F30AB000130AC004830A7000330A800D3
:10044800512A4A086D3A031D4F2AD001D101623062
:10045800D2000330D3003430D4000430D500F93052
:10046800D6000330D7007E30D800D9019030A900DB
:100478000230AA00A530DA000330DB00B130DC001E
:100488000230DD00DB30DE000230DF00AB01AC0102
:10049800A701A801512A4A08A000CB01CB0A63088A
:1004A8008A0062088300F30E730E0900203084006E
:1004B8004B306C220330E1003630E0004B308400D2
:1004C800603071220A128A11762E04068001840A8D
:1004D8000406031D692A64000034F4000A128A1114
:1004E80081220A128A118000840A04087406031DF6
:1004F800722A003483120313E000E11B8C2A611B6B
:10050800942A61088A006008E00A0319E10A820057
:100518008313611883176008E00A84000008080044
:1005280020342034733477343234203474346F34C4
:100538002034733474346134723474340034423483
:100548006C347534653474346F346F34743468348F
:10055800203469346E346934743400347734613447
:100568006934743469346E34673400342034203488
:1005780020342034523475346E346E3469346E3419
:1005880067340034203457346934723465346C3439
:1005980065347334733420344234613473346534CD
:1005A8000034203420344D346F34643465343334AB
:1005B8003D3453344B3450345334003420342034D5
:1005C80020344D344F344434453431343D3453347D
:1005D8004B34503453340034203420344D346F3489
:1005E8006434653432343D3453344B3458344234F3
:1005F800453445340034203420344D344F344434A9
:10060800453431343D3453344B3458344234453412
:1006180045340034203420344D346F346434653428
:1006280031343D3453344B344B3443344134003447
:10063800203420344D344F344434453431343D343F
:1006480053344B344B3443344134003443346F34E3
:100658006E346E3465346334743469346F346E3494
:1006680020340034013482348234823482343F347A
:1006780001346234033434340434F93403345434E4
:1006880000342C340134B1340234DB3402348401B4
:1006980083120313E401FC01FD01FE01FF01780848
:1006A80079047A047B0403195C2BC030E405672BBA
:1006B800F401F501F601F701C72B0310F80DF90D48
:1006C800FA0DFB0DE40AFB1F612BE40A0310FC0D75
:1006D800FD0DFE0DFF0D7B087702031D7D2B7A08AB
:1006E8007602031D7D2B79087502031D7D2B780882
:1006F8007402031C8F2B7C147808F4027908031CFD
:10070800790FF5027A08031C7A0FF6027B08031C9E
:100718007B0FF7020310FB0CFA0CF90CF80CE4033E
:1007280064083F39031D6A2B641FA72B0310FF3091
:10073800F407F409031CF507F509031CF607F60985
:10074800031CF707F7097408F8007508F90076081C
:10075800FA007708FB007C08F4007D08F5007E08A5
:10076800F6007F08F700E41FC72B0310FF30F407DB
:10077800F409031CF507F509031CF607F609031C21
:10078800F707F709C72B8408031900347708800096
:100798008403760880008403750880008403740845
:1007A800800000348301C80087128E0182300E0257
:1007B800031CDA2BC901C90A48084905031DE62BA1
:1007C8008712E72B87168E0182300E02031CE82B56
:1007D8000310C90DC908031DE02B87168E0182304E
:1007E8000E0203180800F32B8301C500C601C701D8
:1007F8004308F5004208F4000630F6000310F50C33
:10080800F40CF60B022C74083F39C60042083F3935
:10081800C7004508D6234608D6234708D6234408E8
:10082800D62B8301B801B701B901BA01BB01BC01DC
:100838008C1E1C2C1A08B8008C1208008301B20008
:10084800B301B401B501B601B601372C340F2F2C12
:10085800B301B30A3B2C1524B400B50A0D3A031DA5
:100868002A2CB501B60A32083602031C2F2CB50112
:10087800330808008301C4014F2C4308E1004208F3
:10088800C20A0319C30A0A128A117E220A128A119D
:100898009A240A128A1143084204031908004308DB
:1008A800E10042080A128A117E220A128A110038CF
:1008B80003190800412C83014908480447044604E9
:1008C80003190800FF30C60703110318013E031D72
:1008D800C707FF3003110318013E031DC807FF3087
:1008E80003110318013E031DC907490848044704BA
:1008F800460403190800662C830106153230C60029
:10090800C701C801C9015F2406113230C600C701FA
:10091800C801C9015F2C8301C300861088003230EA
:10092800C600C701C801C9015F24802C8301C50026
:10093800861488003230C600C701C801C9015F2487
:10094800802C01308F240A128A113230C600C70168
:10095800C801C9015F2C83160313871286158312F9
:1009680087168E018830C6001330C700C801C90138
:100978005F2C8301861EBD2C8B130B1383168C12E0
:1009880083128C120A308316990018159816831250
:1009980018169817A5240A128A11E830C6000330E1
:1009A800C700C801C9015F2400300A128A153F2216
:1009B8000A128A11A330C2000230C3003E24061274
:1009C8008830C6001330C700C801C9015F24061665
:1009D80002302224A5240A128A11E830C600033006
:1009E800C700C801C9015F2400300A128A153F22D6
:1009F8000A128A112A30C2000330C3003E24143080
:100A08000A128A153F220A128A11B230C200023035
:100A1800C3003E24023022248B170B1783168C1632
:100A280083128C12A5240A128A11E830C6000330FA
:100A3800C700C801C9015F2400300A128A153F2285
:100A48000A128A111C30C2000330C3003E2414303D
:100A58000A128A153F220A128A11BB30C2000230DC
:100A6800C3003E24061CB92D861A422D861E3A2D37
:100A7800613099008316981C3E2D981083124B0BF9
:100A8800362D20080A128A158F210A128A11500859
:100A9800C2005108C3003C30C4004130F8230A1298
:100AA8008A115208C2005308C3003230C4004230D1
:100AB800F8230A128A115408C2005508C3003230BC
:100AC800C4004330F8230A128A115608C200570896
:100AD800C3003230C4004430F8230A128A1158087F
:100AE800C2005908C3003230C4004730F8230A1244
:100AF8008A112908C2002A08C3003230C4004830CD
:100B0800F8230A128A115A08C2005B08C30032305F
:100B1800C4004930F8230A128A115C08C2005D0833
:100B2800C300C4014A30F8230A128A115E08C200C1
:100B38005F08C3001430C4004C30F8230A128A112D
:100B48002B08C2002C08C3001430C4004D30F82311
:100B58000A128A112708C2002808C300C4014E30AF
:100B6800F8230A128A11CB01362DA00106180800B5
:100B7800BA2D8301861EBD2D813083169900181564
:100B880098168312181698178B170B1783168C163E
:100B980083128C120616A5240A128A11E830C600A0
:100BA8000330C700C801C9015F2400300A128A1542
:100BB8003F220A128A11FF30C2000230C3003E24CD
:100BC80014300A128A153F220A128A11BB30C20059
:100BD8000230C3003E24061C722E861AFB2D861E88
:100BE800F32D613099008316981CF72D9810831205
:100BF8004B0BEF2D20080A128A158F210A128A1131
:100C08005008C2005108C3003C30C4004130F823EA
:100C18000A128A115208C2005308C3003230C400B5
:100C28004230F8230A128A115408C2005508C3003A
:100C38003230C4004330F8230A128A115608C20021
:100C48005708C3003230C4004430F8230A128A110E
:100C58005808C2005908C3003230C4004730F8238E
:100C68000A128A112908C2002A08C3003230C400B7
:100C78004830F8230A128A115A08C2005B08C300D8
:100C88003230C4004930F8230A128A115C08C200C5
:100C98005D08C300C4014A30F8230A128A115E08AD
:100CA800C2005F08C3001430C4004C30F8230A1295
:100CB8008A112B08C2002C08C3001430C4004D3020
:100CC800F8230A128A112708C2002808C300C401A1
:100CD8004E30F8230A128A11CB01EF2DA001061815
:100CE8000800732E83120313AD01AE01AF01B001EA
:100CF800B101D03083168500293086008801E030A4
:100D080087008901213083129000063083169F00E6
:100D180009308F240A128A1102308F240A128A118C
:100D280006308F240A128A110C308F240A128A1175
:100D380038308F240A128A110C3097009D00FF303A
:100D4800831692007C308312920095019B01A524A2
:100D58000A128A111030C6002730C700C801C9011D
:100D68005F240710051485140515851585160914C3
:100D7800AF240A128A115008C2005108C300C401E6
:100D88004130F8230A128A115208C2005308C300DE
:100D9800C4014230F8230A128A115408C2005508C7
:100DA800C300C4014330F8230A128A115608C2004E
:100DB8005708C300C4014430F8230A128A1158089E
:100DC800C2005908C300C4014730F8230A128A1127
:100DD8002908C2002A08C300C4014830F8230A12AF
:100DE8008A115A08C2005B08C300C4014930F823BD
:100DF8000A128A115C08C2005D08C300C4014A30A7
:100E0800F8230A128A115E08C2005F08C300C401F1
:100E18004C30F8230A128A112B08C2002C08C30090
:100E2800C4014D30F8230A128A112708C200280885
:100E3800C300C4014E30F8230A128A11061206189C
:100E4800382F061C252F03302D0203182D2FAD0A2D
:100E58002E2FAD01A5240A128A11E830C6000330EE
:100E6800C700C801C9015F24AD08031D462F003023
:100E78000A128A153F220A128A11C630C2000230AD
:100E8800C3003E242D0B682F00300A128A153F221A
:100E98000A128A110E30C2000330C3003E241430F7
:100EA8000A128A153F220A128A119430C2000230AF
:100EB800C3003E24861A682F03302D020318662FBC
:100EC800AD0A672FAD01BD242D08023A031D8C2FF2
:100ED80000300A128A153F220A128A11F030C20025
:100EE8000230C3003E2414300A128A153F220A1227
:100EF8008A119430C2000230C3003E24861A8C2F17
:100F080003302D0203188A2FAD0A8B2FAD01BD25A2
:100F18002D08033A031D222F00300A128A153F229A
:100F28000A128A11D530C2000230C3003E241430A0
:100F38000A128A153F220A128A119430C20002301E
:100F4800C3003E24861A222F03302D020318AE2F29
:100F5800AD0AAF2FAD010A128A1551220A128A1161
:100F6800222F8301AD018619B72F8E0182300E0220
:100F7800031CBA2F8E0141300E02031CBF2FAE0195
:100F8800AE0A2E088619AD048E0182300E02031CAB
:100F9800C92F0310AE0DAE08031DC52F2D0808007C
:100FA800830195019B018910091187110712080017
:101200008301AE01AD01AF01B001B101B2012529E9
:10121000AF0A0319B00A0319B10A0319B20A003060
:101220003202031D1D2919303102031D1D29F03022
:101230003002031D1D29A0302F02031C25291A0886
:10124000AD008C12FF30AE002A298C1E08291A0826
:10125000AE008C12AF01B001B101B2012E0808003E
:101260008301AD0100214F3A031D3E2900214B3A75
:10127000031D3E2900210D3A03194029AD01AD0A95
:101280002D0808008301AD00AE01AF01B001B1012E
:10129000B10157292F0F4F29AE01AE0A5B2900215A
:1012A000AF00B00A0D3A031D4A29B001B10A2D085A
:1012B0003102031C4F29B0012E080800FF308301C2
:1012C00095009B00891409158715071608008301EE
:1012D000C200950042089B00891009158715071266
:1012E00008008301C200950042089B00891409117F
:1012F0008711071608008301B300950033089B008F
:10130000891409118715071208008301B30095009D
:1013100033089B00891009158711071608008301FF
:10132000B200383A031DA329E6304C0203189B296A
:101330000530CC079D29E630CC008230CD00CE00B0
:10134000CF004C0885213208323A031DB72982307C
:10135000CC00E6304D020318B0290530CD07B22984
:10136000E630CD008230CE00CF004D087B21320820
:10137000363A031DCB298230CC00CD00E6304E0238
:101380000318C5290530CE07C729E630CE008230C4
:10139000CF004E0871213208343A031DDE29823015
:1013A000CC00CD00CE00E6304F020318DA2905301C
:1013B000CF07DC29E630CF004F0867213208393AE1
:1013C000031DF3298230CC00CD00E6304E02031815
:1013D000EC290530CE07EE29E630CE008230CF0072
:1013E000C2014E081C223208373A031D082A8230F7
:1013F000CC00CD00CE00E6304F020318022A0530A3
:10140000CF07042AE630CF004F08C20000301C226C
:101410003208353A031D08008230CC00CD00CE00E2
:10142000CF005E298301C300950042089B00891408
:1014300009118715071208008301C30095004208AF
:101440009B008910091587110716080083018C1E5F
:10145000262A1A08C30008008301C300831203135D
:101460000C1E2E2A4308990008008301C2002C227A
:10147000262A08008301AD002C222D082C2A830186
:10148000C2001030420203184A2A4208803E0A1263
:101490008A118F2CEC30C2074208C03E0A128A1112
:1014A0008F2C8301BD01BD0AB901C130BE00BF014F
:1014B000C001C101BC01B201861E5C2A0710813047
:1014C00083169900181598168312181698178B13FF
:1014D0000B1383168C1283128C1206160A128A11B1
:1014E000A524E830C6000330C700C801C9010A12AC
:1014F0008A115F240A128A1500303F22E230C200AE
:101500000230C3000A128A113E240A128A151430CE
:101510003F22BA30C2000230C3000A128A113E24B0
:101520000A128A15061CFD2F861A9E2A861E962AE6
:10153000613099008316981C9A2A98100030352241
:101540000A128A150038031DB32A003035220A1208
:101550008A1500380319A52A0130BC063C0BB22AB3
:101560000714B32A07103D0B242B5008C200510862
:10157000C3003C30C40041300A128A11F8235208DB
:10158000C2005308C3003230C40042300A128A112C
:10159000F8235408C2005508C3003230C400433059
:1015A0000A128A11F8235608C2005708C3003230C5
:1015B000C40044300A128A11F8235808C20059089E
:1015C000C3003230C40047300A128A11F8232908B8
:1015D000C2002A08C3003230C40048300A128A11FF
:1015E000F8235A08C2005B08C3003230C4004930F7
:1015F0000A128A11F8235C08C2005D08C300C40106
:101600004A300A128A11F8235E08C2005F08C3003C
:101610001430C4004C300A128A11F8232B08C2007F
:101620002C08C3001430C4004D300A128A11F8236C
:101630002708C2002808C300C4014E300A128A11CC
:10164000F8230A128A15BD01183035220A128A15AC
:10165000BB00193035220A128A15BA001A30352219
:101660000A128A15B7001B3035220A128A15B800F3
:10167000143035220A128A15B600153035220A12A6
:101680008A15B300163035220A128A15B4001730B5
:1016900035220A128A15B500013035220A128A1540
:1016A0000038031D632B3C0B562B612B00302802A6
:1016B0001F3003192702031C612BE230A707031C0C
:1016C000A803BD01BD0A023035220A128A1500386E
:1016D000031D7A2B3C0B6D2B782B0530280299309B
:1016E000031927020318782B1E30A7070318A80A2E
:1016F000BD01BD0A0C3035220A128A150038031DBF
:10170000BA2B3C0BAD2B3F30D0000130D100543010
:10171000D200D3013430D4000430D5008B30D60051
:101720000130D7008330D8000330D900A901AA01C5
:10173000BE30DA000330DB00B130DC000230DD0007
:10174000DB30DE000230DF00C630AB000130AC0021
:10175000DB30A7000230A800B82B00305B021F303E
:1017600003195A02031CB82BE230DA07031CDB030F
:10177000BD01BD0A0F3035220A128A150038031D3B
:10178000F82B3C0BEB2B0E30D0000330D1002A306D
:10179000D200D3015D30D4000230D5008330D600B2
:1017A0000130D7005430D800D901A901AA01CE30A8
:1017B000DA000130DB007E30DC00DD01DB30DE00F2
:1017C0000230DF00C630AB000130AC00DB30A700D8
:1017D0000230A800F62B00302A021F30031929021C
:1017E000031CF62BE230A907031CAA03BD01BD0AA6
:1017F0000D3035220A128A150038031D392C3C0B96
:101800002C2CD001D1016230D2000330D30034300F
:10181000D4000430D500F930D6000330D70094301E
:10182000D8000330D9005930A9000130AA00BE30D9
:10183000DA000330DB006630DC000430DD00DB3032
:10184000DE000230DF00C630AB000130AC00DB3020
:10185000A7000230A800372C05302A02993003195E
:1018600029020318372C1E30A9070318AA0ABD0144
:10187000BD0A0E3035220A128A150038031D752C58
:101880003C0B682C3F30D0000130D1006230D200D8
:101890000330D3003430D4000430D500F930D60002
:1018A0000330D7005430D800D901A901AA012C3047
:1018B000DA000130DB00B130DC000230DD00DB306B
:1018C000DE000230DF00AB01AC01A701A801732CE0
:1018D00005305B02993003195A020318732C1E302D
:1018E000DA070318DB0ABD01BD0A033035220A12EC
:1018F0008A150038031DA32C3F30D0000130D100E1
:101900006230D2000330D3003430D4000430D5002C
:10191000F930D6000330D7005430D800D901A901DE
:10192000AA012C30DA000130DB00B130DC000230DB
:10193000DD00DB30DE000230DF00AB01AC01A701CF
:10194000A801BD01BD0A043035220A128A150038EB
:10195000031DBA2C3C0BAD2CB82C05305702993026
:10196000031956020318B82C1E30D6070318D70ADD
:10197000BD01BD0A063035220A128A150038031D42
:10198000F92C3C0BEC2C3F30D0000130D1004C3016
:10199000D200D3012B30D4000430D5006630D600FD
:1019A0000430D700A230D8000330D900A901AA0121
:1019B000EB30DA00DB01B130DC000230DD00DB307F
:1019C000DE000230DF002F30AB000130AC004830C9
:1019D000A7000330A800F72C003057021F3003196E
:1019E0005602031CF72CE230D607031CD703BD01B7
:1019F000BD0A073035220A128A150038031D352D1D
:101A00003C0B282DB630D0000330D1006230D2001C
:101A10000330D3001530D4000130D5008B30D60010
:101A20000130D7005430D800D901A901AA01CE3025
:101A3000DA000130DB00B130DC000230DD00DB30E9
:101A4000DE000230DF00AB01AC01A701A801332D9D
:101A5000003055021F3003195402031C332DE230AD
:101A6000D407031CD503BD01BD0A053035220A1277
:101A70008A150038031D712D3C0B642DD001D10156
:101A80006230D2000330D3003430D4000430D500AB
:101A9000F930D6000330D7007E30D800D90190301D
:101AA000A9000230AA00A530DA000330DB00B13013
:101AB000DC000230DD00DB30DE000230DF00AB0195
:101AC000AC01A701A8016F2D05305502993003190B
:101AD000540203186F2D1E30D4070318D50ABD0118
:101AE000BD0A0A3035220A128A150038031D932DCB
:101AF0003C0B862D0A3035220A128A15003803194C
:101B00007A2D0230850604308506932D05305F025C
:101B1000993003195E020318912D1E30DE07031859
:101B2000DF0ABD01BD0A083035220A128A150038C5
:101B3000031DB52D3C0BA82D083035220A128A153D
:101B4000003803199C2D0130850608308506B52D17
:101B500000305F021F3003195E02031CB32DE23018
:101B6000DE07031CDF03BD01BD0A0B3035220A125C
:101B70008A150038031DD52D3C0BC82D0B3035229E
:101B80000A128A1500380319BE2D01308906D52D99
:101B900000302C021F3003192B02031CD32DE2301E
:101BA000AB07031CAC03BD01BD0A093035220A1284
:101BB0008A150038031DF52D3C0BE82D0930352220
:101BC0000A128A1500380319DE2D20308506F52DFE
:101BD00005302C02993003192B020318F32D1E3007
:101BE000AB070318AC0ABD01BD0A143035220A1236
:101BF0008A1500380319282E163035220A128A1544
:101C000000380319122E3C0B062E852E0530530288
:101C10009930031952020318852EE230D207031CB3
:101C2000D303852E173035220A128A15003803197E
:101C3000872E3C0B1C2E852E053059029930031936
:101C400058020318852E1E30D8070318D90A852E8E
:101C5000153035220A128A150038163003195B2E0A
:101C600035220A128A1500380319452E3C0B392EED
:101C7000852E003053021F3003195202031C852E9B
:101C80001E30D2070318D30A852E173035220A12C8
:101C90008A1500380319872E3C0B4F2E852E0030F5
:101CA00059021F3003195802031C852EE230D80751
:101CB000031CD903852E35220A128A150038031910
:101CC000702E3C0B642E852E05305D029930031971
:101CD0005C020318852E1430DC070318DD0A852EFC
:101CE000173035220A128A1500380319872E3C0B4B
:101CF0007A2E852E00305D021F3003195C02031C12
:101D0000852EEC30DC07031CDD03BD01BD0ABB08DA
:101D10000319762FB7080319DC2E7E30C20002307B
:101D2000C3003F30C40041300A128A11F8230A125E
:101D30008A153B0837020318A12E37083B028C3E58
:101D4000A22E8C30C2003B088C3E1C22B908003009
:101D5000031DC32E4102083003194002031CB52E97
:101D6000B901B90AC001C101B82EC00A0319C10ADC
:101D70009630C200C301C4014E300A128A11F82302
:101D80000A128A15922A4102083003194002031CE4
:101D9000CD2EB901C001C101D02EC00A0319C10A5C
:101DA000BC30C2000230C300C4014E300A128A1196
:101DB000F8230A128A15922AB80803192E2FC20195
:101DC000C3013F30C40041300A128A11F8230A12BD
:101DD0008A153B0838023B080318F42E8C3EC200DB
:101DE00038083B028C3EF72E8C3EC2008C301C2201
:101DF000B9080030031D152F4102083003194002B5
:101E0000031C072FB901B90AC001C1010A2FC00A7A
:101E10000319C10A9630C200C301C4014E300A1230
:101E20008A11F8230A128A15922A410208300319EE
:101E30004002031C1F2FB901C001C101222FC00A9B
:101E40000319C10ABC30C2000230C300C4014E30C5
:101E50000A128A11F8230A128A15922A3F30C20008
:101E60000130C3003F30C40041300A128A11F82308
:101E70000A128A153B088C3EC2003B088C3E1C228D
:101E8000B9080030031D5D2F4102083003194002DC
:101E9000031C4F2FB901B90AC001C101522FC00A5A
:101EA0000319C10A9630C200C301C4014E300A12A0
:101EB0008A11F8230A128A15922A4102083003195E
:101EC0004002031C672FB901C001C1016A2FC00A7B
:101ED0000319C10ABC30C2000230C300C4014E3035
:101EE0000A128A11F8230A128A15922ABA080319CB
:101EF000CB2FB7080319982FC201C3013F30C4008C
:101F000041300A128A11F8230A128A153A08370258
:101F10000318922F37083A028C3EC2003A088C3ED2
:101F20001222922A8C30C2003A088C3E1222922A47
:101F3000B8080319B82F7E30C2000230C3003F300A
:101F4000C40041300A128A11F8230A128A153A088D
:101F500038023A080318B32F8C3EC20038083A0200
:101F60008C3E1222922A8C3EC2008C301222922A7F
:101F70003F30C2000130C3003F30C40041300A127C
:101F80008A11F8230A128A153A088C3EC2003A08D0
:101F90008C3E1222922AB7080319DE2F7E30C2002F
:101FA0000230C3003F30C40041300A128A11F823C6
:101FB0000A128A153708783E6721922AB808031951
:101FC000EF2FC201C3013F30C40041300A128A1111
:101FD000F8230A128A153808783E7121922A3F3078
:101FE000C2000130C3003F30C40041300A128A11E0
:101FF000F8230A128A155E21922A06180800FD2F7E
:102BEE000A3083013102031C2F2EF801E430F90064
:102BFE000B30FA005430FB002D08F4002E08F500BF
:102C0E002F08F6003008F7000A128A114B237808B5
:102C1E00AD007908AE007A08AF007B08B000F8016D
:102C2E00CA30F9009A30FA003B30FB002D08F40050
:102C3E002E08F5002F08F6003008F7000A128A1148
:102C4E004B237408303E0A128A119A240A168A11EE
:102C5E0009303102031C662EF801CA30F9009A3091
:102C6E00FA003B30FB002D08F4002E08F5002F086B
:102C7E00F6003008F7000A128A114B237808AD00CF
:102C8E007908AE007A08AF007B08B000F801E13099
:102C9E00F900F530FA000530FB002D08F4002E087F
:102CAE00F5002F08F6003008F7000A128A114B23A0
:102CBE007408303E0A128A119A240A168A110830B4
:102CCE003102031C9D2EF801E130F900F530FA00B7
:102CDE000530FB002D08F4002E08F5002F08F60035
:102CEE003008F7000A128A114B237808AD007908D4
:102CFE00AE007A08AF007B08B0008030F800963046
:102D0E00F9009830FA00FB012D08F4002E08F500AA
:102D1E002F08F6003008F7000A128A114B237408A8
:102D2E00303E0A128A119A240A168A11073031028D
:102D3E00031CD42E8030F8009630F9009830FA003B
:102D4E00FB012D08F4002E08F5002F08F6003008C0
:102D5E00F7000A128A114B237808AD007908AE00ED
:102D6E007A08AF007B08B0004030F8004230F9001E
:102D7E000F30FA00FB012D08F4002E08F5002F0885
:102D8E00F6003008F7000A128A114B237408303E01
:102D9E000A128A119A240A168A1106303102031C6D
:102DAE000B2F4030F8004230F9000F30FA00FB01D3
:102DBE002D08F4002E08F5002F08F6003008F70055
:102DCE000A128A114B237808AD007908AE007A08F2
:102DDE00AF007B08B000A030F8008630F90001305B
:102DEE00FA00FB012D08F4002E08F5002F08F6005E
:102DFE003008F7000A128A114B237408303E0A126B
:102E0E008A119A240A168A1105303102031C412FA9
:102E1E00A030F8008630F9000130FA00FB012D08D1
:102E2E00F4002E08F5002F08F6003008F7000A12FD
:102E3E008A114B237808AD007908AE007A08AF00EE
:102E4E007B08B0001030F8002730F900FA01FB01C2
:102E5E002D08F4002E08F5002F08F6003008F700B4
:102E6E000A128A114B237408303E0A128A119A24D0
:102E7E000A168A1104303102031C762F1030F80026
:102E8E002730F900FA01FB012D08F4002E08F50099
:102E9E002F08F6003008F7000A128A114B23780823
:102EAE00AD007908AE007A08AF007B08B000E830BC
:102EBE00F8000330F900FA01FB012D08F4002E088A
:102ECE00F5002F08F6003008F7000A128A114B237E
:102EDE007408303E0A128A119A240A168A11033097
:102EEE003102031CAA2FE830F8000330F900FA0172
:102EFE00FB012D08F4002E08F5002F08F60030080F
:102F0E00F7000A128A114B237808AD007908AE003B
:102F1E007A08AF007B08B0006430F800F901FA01BE
:102F2E00FB012D08F4002E08F5002F08F6003008DE
:102F3E00F7000A128A114B237408303E0A128A11C6
:102F4E009A240A168A1102303102031CDD2F6430D6
:102F5E00F800F901FA01FB012D08F4002E08F50026
:102F6E002F08F6003008F7000A128A114B23780852
:102F7E00AD007908AE007A08AF007B08B0000A30C9
:102F8E00F800F901FA01FB012D08F4002E08F500F6
:102F9E002F08F6003008F7000A128A114B23740826
:102FAE00303E0A128A119A240A168A110130310211
:102FBE00031C08000A30F800F901FA01FB012D0884
:102FCE00F4002E08F5002F08F6003008F7000A125C
:102FDE008A114B230A168A117808AD007908AE00C3
:102FEE007A08AF007B08B0002D08303E0A128A1115
:022FFE009A2C0B
:02400E00323F3F
:00000001FF
